{
  "_format": "hh-sol-artifact-1",
  "contractName": "DWD",
  "sourceName": "contracts/DWD.sol",
  "abi": [
    {
      "inputs": [
        {
          "internalType": "contract IWorldIdAddressBook",
          "name": "_worldAddressBook",
          "type": "address"
        }
      ],
      "stateMutability": "nonpayable",
      "type": "constructor"
    },
    {
      "inputs": [
        {
          "internalType": "address",
          "name": "spender",
          "type": "address"
        },
        {
          "internalType": "uint256",
          "name": "allowance",
          "type": "uint256"
        },
        {
          "internalType": "uint256",
          "name": "needed",
          "type": "uint256"
        }
      ],
      "name": "ERC20InsufficientAllowance",
      "type": "error"
    },
    {
      "inputs": [
        {
          "internalType": "address",
          "name": "sender",
          "type": "address"
        },
        {
          "internalType": "uint256",
          "name": "balance",
          "type": "uint256"
        },
        {
          "internalType": "uint256",
          "name": "needed",
          "type": "uint256"
        }
      ],
      "name": "ERC20InsufficientBalance",
      "type": "error"
    },
    {
      "inputs": [
        {
          "internalType": "address",
          "name": "approver",
          "type": "address"
        }
      ],
      "name": "ERC20InvalidApprover",
      "type": "error"
    },
    {
      "inputs": [
        {
          "internalType": "address",
          "name": "receiver",
          "type": "address"
        }
      ],
      "name": "ERC20InvalidReceiver",
      "type": "error"
    },
    {
      "inputs": [
        {
          "internalType": "address",
          "name": "sender",
          "type": "address"
        }
      ],
      "name": "ERC20InvalidSender",
      "type": "error"
    },
    {
      "inputs": [
        {
          "internalType": "address",
          "name": "spender",
          "type": "address"
        }
      ],
      "name": "ERC20InvalidSpender",
      "type": "error"
    },
    {
      "anonymous": false,
      "inputs": [
        {
          "indexed": true,
          "internalType": "address",
          "name": "owner",
          "type": "address"
        },
        {
          "indexed": true,
          "internalType": "address",
          "name": "spender",
          "type": "address"
        },
        {
          "indexed": false,
          "internalType": "uint256",
          "name": "value",
          "type": "uint256"
        }
      ],
      "name": "Approval",
      "type": "event"
    },
    {
      "anonymous": false,
      "inputs": [
        {
          "indexed": true,
          "internalType": "address",
          "name": "from",
          "type": "address"
        },
        {
          "indexed": true,
          "internalType": "address",
          "name": "to",
          "type": "address"
        },
        {
          "indexed": false,
          "internalType": "uint256",
          "name": "value",
          "type": "uint256"
        }
      ],
      "name": "Transfer",
      "type": "event"
    },
    {
      "inputs": [],
      "name": "CLAIM_AMOUNT",
      "outputs": [
        {
          "internalType": "uint256",
          "name": "",
          "type": "uint256"
        }
      ],
      "stateMutability": "view",
      "type": "function"
    },
    {
      "inputs": [],
      "name": "CLAIM_FREQUENCY_SECONDS",
      "outputs": [
        {
          "internalType": "uint256",
          "name": "",
          "type": "uint256"
        }
      ],
      "stateMutability": "view",
      "type": "function"
    },
    {
      "inputs": [
        {
          "internalType": "address",
          "name": "owner",
          "type": "address"
        },
        {
          "internalType": "address",
          "name": "spender",
          "type": "address"
        }
      ],
      "name": "allowance",
      "outputs": [
        {
          "internalType": "uint256",
          "name": "",
          "type": "uint256"
        }
      ],
      "stateMutability": "view",
      "type": "function"
    },
    {
      "inputs": [
        {
          "internalType": "address",
          "name": "spender",
          "type": "address"
        },
        {
          "internalType": "uint256",
          "name": "value",
          "type": "uint256"
        }
      ],
      "name": "approve",
      "outputs": [
        {
          "internalType": "bool",
          "name": "",
          "type": "bool"
        }
      ],
      "stateMutability": "nonpayable",
      "type": "function"
    },
    {
      "inputs": [
        {
          "internalType": "address",
          "name": "account",
          "type": "address"
        }
      ],
      "name": "balanceOf",
      "outputs": [
        {
          "internalType": "uint256",
          "name": "",
          "type": "uint256"
        }
      ],
      "stateMutability": "view",
      "type": "function"
    },
    {
      "inputs": [],
      "name": "claim",
      "outputs": [],
      "stateMutability": "nonpayable",
      "type": "function"
    },
    {
      "inputs": [],
      "name": "decimals",
      "outputs": [
        {
          "internalType": "uint8",
          "name": "",
          "type": "uint8"
        }
      ],
      "stateMutability": "view",
      "type": "function"
    },
    {
      "inputs": [
        {
          "internalType": "address",
          "name": "",
          "type": "address"
        }
      ],
      "name": "lastMint",
      "outputs": [
        {
          "internalType": "uint256",
          "name": "",
          "type": "uint256"
        }
      ],
      "stateMutability": "view",
      "type": "function"
    },
    {
      "inputs": [],
      "name": "name",
      "outputs": [
        {
          "internalType": "string",
          "name": "",
          "type": "string"
        }
      ],
      "stateMutability": "view",
      "type": "function"
    },
    {
      "inputs": [],
      "name": "symbol",
      "outputs": [
        {
          "internalType": "string",
          "name": "",
          "type": "string"
        }
      ],
      "stateMutability": "view",
      "type": "function"
    },
    {
      "inputs": [],
      "name": "totalSupply",
      "outputs": [
        {
          "internalType": "uint256",
          "name": "",
          "type": "uint256"
        }
      ],
      "stateMutability": "view",
      "type": "function"
    },
    {
      "inputs": [
        {
          "internalType": "address",
          "name": "to",
          "type": "address"
        },
        {
          "internalType": "uint256",
          "name": "value",
          "type": "uint256"
        }
      ],
      "name": "transfer",
      "outputs": [
        {
          "internalType": "bool",
          "name": "",
          "type": "bool"
        }
      ],
      "stateMutability": "nonpayable",
      "type": "function"
    },
    {
      "inputs": [
        {
          "internalType": "address",
          "name": "from",
          "type": "address"
        },
        {
          "internalType": "address",
          "name": "to",
          "type": "address"
        },
        {
          "internalType": "uint256",
          "name": "value",
          "type": "uint256"
        }
      ],
      "name": "transferFrom",
      "outputs": [
        {
          "internalType": "bool",
          "name": "",
          "type": "bool"
        }
      ],
      "stateMutability": "nonpayable",
      "type": "function"
    },
    {
      "inputs": [],
      "name": "worldAddressBook",
      "outputs": [
        {
          "internalType": "contract IWorldIdAddressBook",
          "name": "",
          "type": "address"
        }
      ],
      "stateMutability": "view",
      "type": "function"
    }
  ],
  "bytecode": "0x60a060405234801561001057600080fd5b506040516118493803806118498339818101604052810190610032919061016f565b6040518060400160405280600381526020017f44574400000000000000000000000000000000000000000000000000000000008152506040518060400160405280600381526020017f445744000000000000000000000000000000000000000000000000000000000081525081600390816100ad91906103ec565b5080600490816100bd91906103ec565b5050508073ffffffffffffffffffffffffffffffffffffffff1660808173ffffffffffffffffffffffffffffffffffffffff1681525050506104be565b600080fd5b600073ffffffffffffffffffffffffffffffffffffffff82169050919050565b600061012a826100ff565b9050919050565b600061013c8261011f565b9050919050565b61014c81610131565b811461015757600080fd5b50565b60008151905061016981610143565b92915050565b600060208284031215610185576101846100fa565b5b60006101938482850161015a565b91505092915050565b600081519050919050565b7f4e487b7100000000000000000000000000000000000000000000000000000000600052604160045260246000fd5b7f4e487b7100000000000000000000000000000000000000000000000000000000600052602260045260246000fd5b6000600282049050600182168061021d57607f821691505b6020821081036102305761022f6101d6565b5b50919050565b60008190508160005260206000209050919050565b60006020601f8301049050919050565b600082821b905092915050565b6000600883026102987fffffffffffffffffffffffffffffffffffffffffffffffffffffffffffffffff8261025b565b6102a2868361025b565b95508019841693508086168417925050509392505050565b6000819050919050565b6000819050919050565b60006102e96102e46102df846102ba565b6102c4565b6102ba565b9050919050565b6000819050919050565b610303836102ce565b61031761030f826102f0565b848454610268565b825550505050565b600090565b61032c61031f565b6103378184846102fa565b505050565b5b8181101561035b57610350600082610324565b60018101905061033d565b5050565b601f8211156103a05761037181610236565b61037a8461024b565b81016020851015610389578190505b61039d6103958561024b565b83018261033c565b50505b505050565b600082821c905092915050565b60006103c3600019846008026103a5565b1980831691505092915050565b60006103dc83836103b2565b9150826002028217905092915050565b6103f58261019c565b67ffffffffffffffff81111561040e5761040d6101a7565b5b6104188254610205565b61042382828561035f565b600060209050601f8311600181146104565760008415610444578287015190505b61044e85826103d0565b8655506104b6565b601f19841661046486610236565b60005b8281101561048c57848901518255600182019150602085019450602081019050610467565b868310156104a957848901516104a5601f8916826103b2565b8355505b6001600288020188555050505b505050505050565b6080516113696104e0600039600081816103f2015261075601526113696000f3fe608060405234801561001057600080fd5b50600436106100ea5760003560e01c806370a082311161008c578063a9059cbb11610066578063a9059cbb1461023d578063adc20b1c1461026d578063dd62ed3e1461029d578063fbfe4012146102cd576100ea565b806370a08231146101d1578063742f0a331461020157806395d89b411461021f576100ea565b806323b872dd116100c857806323b872dd1461015b578063270ef3851461018b578063313ce567146101a95780634e71d92d146101c7576100ea565b806306fdde03146100ef578063095ea7b31461010d57806318160ddd1461013d575b600080fd5b6100f76102eb565b6040516101049190610e29565b60405180910390f35b61012760048036038101906101229190610ee4565b61037d565b6040516101349190610f3f565b60405180910390f35b6101456103a0565b6040516101529190610f69565b60405180910390f35b61017560048036038101906101709190610f84565b6103aa565b6040516101829190610f3f565b60405180910390f35b6101936103d9565b6040516101a09190610f69565b60405180910390f35b6101b16103e5565b6040516101be9190610ff3565b60405180910390f35b6101cf6103ee565b005b6101eb60048036038101906101e6919061100e565b6105b1565b6040516101f89190610f69565b60405180910390f35b6102096105f9565b6040516102169190610f69565b60405180910390f35b610227610600565b6040516102349190610e29565b60405180910390f35b61025760048036038101906102529190610ee4565b610692565b6040516102649190610f3f565b60405180910390f35b6102876004803603810190610282919061100e565b6106b5565b6040516102949190610f69565b60405180910390f35b6102b760048036038101906102b2919061103b565b6106cd565b6040516102c49190610f69565b60405180910390f35b6102d5610754565b6040516102e291906110da565b60405180910390f35b6060600380546102fa90611124565b80601f016020809104026020016040519081016040528092919081815260200182805461032690611124565b80156103735780601f1061034857610100808354040283529160200191610373565b820191906000526020600020905b81548152906001019060200180831161035657829003601f168201915b5050505050905090565b600080610388610778565b9050610395818585610780565b600191505092915050565b6000600254905090565b6000806103b5610778565b90506103c2858285610792565b6103cd858585610827565b60019150509392505050565b670de0b6b3a764000081565b60006012905090565b60007f000000000000000000000000000000000000000000000000000000000000000073ffffffffffffffffffffffffffffffffffffffff16632bc91fed336040518263ffffffff1660e01b81526004016104499190611164565b602060405180830381865afa158015610466573d6000803e3d6000fd5b505050506040513d601f19601f8201168201806040525081019061048a9190611194565b116104ca576040517f08c379a00000000000000000000000000000000000000000000000000000000081526004016104c19061120d565b60405180910390fd5b4262015180600560003373ffffffffffffffffffffffffffffffffffffffff1673ffffffffffffffffffffffffffffffffffffffff16815260200190815260200160002054610519919061125c565b10610559576040517f08c379a0000000000000000000000000000000000000000000000000000000008152600401610550906112dc565b60405180910390fd5b42600560003373ffffffffffffffffffffffffffffffffffffffff1673ffffffffffffffffffffffffffffffffffffffff168152602001908152602001600020819055506105af33670de0b6b3a764000061091b565b565b60008060008373ffffffffffffffffffffffffffffffffffffffff1673ffffffffffffffffffffffffffffffffffffffff168152602001908152602001600020549050919050565b6201518081565b60606004805461060f90611124565b80601f016020809104026020016040519081016040528092919081815260200182805461063b90611124565b80156106885780601f1061065d57610100808354040283529160200191610688565b820191906000526020600020905b81548152906001019060200180831161066b57829003601f168201915b5050505050905090565b60008061069d610778565b90506106aa818585610827565b600191505092915050565b60056020528060005260406000206000915090505481565b6000600160008473ffffffffffffffffffffffffffffffffffffffff1673ffffffffffffffffffffffffffffffffffffffff16815260200190815260200160002060008373ffffffffffffffffffffffffffffffffffffffff1673ffffffffffffffffffffffffffffffffffffffff16815260200190815260200160002054905092915050565b7f000000000000000000000000000000000000000000000000000000000000000081565b600033905090565b61078d838383600161099d565b505050565b600061079e84846106cd565b90507fffffffffffffffffffffffffffffffffffffffffffffffffffffffffffffffff8110156108215781811015610811578281836040517ffb8f41b2000000000000000000000000000000000000000000000000000000008152600401610808939291906112fc565b60405180910390fd5b6108208484848403600061099d565b5b50505050565b600073ffffffffffffffffffffffffffffffffffffffff168373ffffffffffffffffffffffffffffffffffffffff16036108995760006040517f96c6fd1e0000000000000000000000000000000000000000000000000000000081526004016108909190611164565b60405180910390fd5b600073ffffffffffffffffffffffffffffffffffffffff168273ffffffffffffffffffffffffffffffffffffffff160361090b5760006040517fec442f050000000000000000000000000000000000000000000000000000000081526004016109029190611164565b60405180910390fd5b610916838383610b74565b505050565b600073ffffffffffffffffffffffffffffffffffffffff168273ffffffffffffffffffffffffffffffffffffffff160361098d5760006040517fec442f050000000000000000000000000000000000000000000000000000000081526004016109849190611164565b60405180910390fd5b61099960008383610b74565b5050565b600073ffffffffffffffffffffffffffffffffffffffff168473ffffffffffffffffffffffffffffffffffffffff1603610a0f5760006040517fe602df05000000000000000000000000000000000000000000000000000000008152600401610a069190611164565b60405180910390fd5b600073ffffffffffffffffffffffffffffffffffffffff168373ffffffffffffffffffffffffffffffffffffffff1603610a815760006040517f94280d62000000000000000000000000000000000000000000000000000000008152600401610a789190611164565b60405180910390fd5b81600160008673ffffffffffffffffffffffffffffffffffffffff1673ffffffffffffffffffffffffffffffffffffffff16815260200190815260200160002060008573ffffffffffffffffffffffffffffffffffffffff1673ffffffffffffffffffffffffffffffffffffffff168152602001908152602001600020819055508015610b6e578273ffffffffffffffffffffffffffffffffffffffff168473ffffffffffffffffffffffffffffffffffffffff167f8c5be1e5ebec7d5bd14f71427d1e84f3dd0314c0f7b2291e5b200ac8c7c3b92584604051610b659190610f69565b60405180910390a35b50505050565b600073ffffffffffffffffffffffffffffffffffffffff168373ffffffffffffffffffffffffffffffffffffffff1603610bc6578060026000828254610bba919061125c565b92505081905550610c99565b60008060008573ffffffffffffffffffffffffffffffffffffffff1673ffffffffffffffffffffffffffffffffffffffff16815260200190815260200160002054905081811015610c52578381836040517fe450d38c000000000000000000000000000000000000000000000000000000008152600401610c49939291906112fc565b60405180910390fd5b8181036000808673ffffffffffffffffffffffffffffffffffffffff1673ffffffffffffffffffffffffffffffffffffffff16815260200190815260200160002081905550505b600073ffffffffffffffffffffffffffffffffffffffff168273ffffffffffffffffffffffffffffffffffffffff1603610ce25780600260008282540392505081905550610d2f565b806000808473ffffffffffffffffffffffffffffffffffffffff1673ffffffffffffffffffffffffffffffffffffffff168152602001908152602001600020600082825401925050819055505b8173ffffffffffffffffffffffffffffffffffffffff168373ffffffffffffffffffffffffffffffffffffffff167fddf252ad1be2c89b69c2b068fc378daa952ba7f163c4a11628f55a4df523b3ef83604051610d8c9190610f69565b60405180910390a3505050565b600081519050919050565b600082825260208201905092915050565b60005b83811015610dd3578082015181840152602081019050610db8565b60008484015250505050565b6000601f19601f8301169050919050565b6000610dfb82610d99565b610e058185610da4565b9350610e15818560208601610db5565b610e1e81610ddf565b840191505092915050565b60006020820190508181036000830152610e438184610df0565b905092915050565b600080fd5b600073ffffffffffffffffffffffffffffffffffffffff82169050919050565b6000610e7b82610e50565b9050919050565b610e8b81610e70565b8114610e9657600080fd5b50565b600081359050610ea881610e82565b92915050565b6000819050919050565b610ec181610eae565b8114610ecc57600080fd5b50565b600081359050610ede81610eb8565b92915050565b60008060408385031215610efb57610efa610e4b565b5b6000610f0985828601610e99565b9250506020610f1a85828601610ecf565b9150509250929050565b60008115159050919050565b610f3981610f24565b82525050565b6000602082019050610f546000830184610f30565b92915050565b610f6381610eae565b82525050565b6000602082019050610f7e6000830184610f5a565b92915050565b600080600060608486031215610f9d57610f9c610e4b565b5b6000610fab86828701610e99565b9350506020610fbc86828701610e99565b9250506040610fcd86828701610ecf565b9150509250925092565b600060ff82169050919050565b610fed81610fd7565b82525050565b60006020820190506110086000830184610fe4565b92915050565b60006020828403121561102457611023610e4b565b5b600061103284828501610e99565b91505092915050565b6000806040838503121561105257611051610e4b565b5b600061106085828601610e99565b925050602061107185828601610e99565b9150509250929050565b6000819050919050565b60006110a061109b61109684610e50565b61107b565b610e50565b9050919050565b60006110b282611085565b9050919050565b60006110c4826110a7565b9050919050565b6110d4816110b9565b82525050565b60006020820190506110ef60008301846110cb565b92915050565b7f4e487b7100000000000000000000000000000000000000000000000000000000600052602260045260246000fd5b6000600282049050600182168061113c57607f821691505b60208210810361114f5761114e6110f5565b5b50919050565b61115e81610e70565b82525050565b60006020820190506111796000830184611155565b92915050565b60008151905061118e81610eb8565b92915050565b6000602082840312156111aa576111a9610e4b565b5b60006111b88482850161117f565b91505092915050565b7f41646472657373206e6f74207665726966696564000000000000000000000000600082015250565b60006111f7601483610da4565b9150611202826111c1565b602082019050919050565b60006020820190508181036000830152611226816111ea565b9050919050565b7f4e487b7100000000000000000000000000000000000000000000000000000000600052601160045260246000fd5b600061126782610eae565b915061127283610eae565b925082820190508082111561128a5761128961122d565b5b92915050565b7f596f757220636c61696d206973206e6f7420617661696c61626c652079657400600082015250565b60006112c6601f83610da4565b91506112d182611290565b602082019050919050565b600060208201905081810360008301526112f5816112b9565b9050919050565b60006060820190506113116000830186611155565b61131e6020830185610f5a565b61132b6040830184610f5a565b94935050505056fea26469706673582212207ca7bcc1dc0f80aed6e8c3dbe492164c834aeabbe21df1c6f712aa65953a66dd64736f6c634300081b0033",
  "linkReferences": {},
  "deployedLinkReferences": {}
}