{
  "_format": "hh-sol-artifact-1",
  "contractName": "WorldIdClaimToken",
  "sourceName": "contracts/WorldIdClaimToken.sol",
  "abi": [
    {
      "inputs": [
        {
          "internalType": "string",
          "name": "_name",
          "type": "string"
        },
        {
          "internalType": "string",
          "name": "_symbol",
          "type": "string"
        },
        {
          "internalType": "string",
          "name": "_appName",
          "type": "string"
        }
      ],
      "stateMutability": "nonpayable",
      "type": "constructor"
    },
    {
      "inputs": [
        {
          "internalType": "address",
          "name": "spender",
          "type": "address"
        },
        {
          "internalType": "uint256",
          "name": "allowance",
          "type": "uint256"
        },
        {
          "internalType": "uint256",
          "name": "needed",
          "type": "uint256"
        }
      ],
      "name": "ERC20InsufficientAllowance",
      "type": "error"
    },
    {
      "inputs": [
        {
          "internalType": "address",
          "name": "sender",
          "type": "address"
        },
        {
          "internalType": "uint256",
          "name": "balance",
          "type": "uint256"
        },
        {
          "internalType": "uint256",
          "name": "needed",
          "type": "uint256"
        }
      ],
      "name": "ERC20InsufficientBalance",
      "type": "error"
    },
    {
      "inputs": [
        {
          "internalType": "address",
          "name": "approver",
          "type": "address"
        }
      ],
      "name": "ERC20InvalidApprover",
      "type": "error"
    },
    {
      "inputs": [
        {
          "internalType": "address",
          "name": "receiver",
          "type": "address"
        }
      ],
      "name": "ERC20InvalidReceiver",
      "type": "error"
    },
    {
      "inputs": [
        {
          "internalType": "address",
          "name": "sender",
          "type": "address"
        }
      ],
      "name": "ERC20InvalidSender",
      "type": "error"
    },
    {
      "inputs": [
        {
          "internalType": "address",
          "name": "spender",
          "type": "address"
        }
      ],
      "name": "ERC20InvalidSpender",
      "type": "error"
    },
    {
      "inputs": [
        {
          "internalType": "address",
          "name": "owner",
          "type": "address"
        }
      ],
      "name": "OwnableInvalidOwner",
      "type": "error"
    },
    {
      "inputs": [
        {
          "internalType": "address",
          "name": "account",
          "type": "address"
        }
      ],
      "name": "OwnableUnauthorizedAccount",
      "type": "error"
    },
    {
      "anonymous": false,
      "inputs": [
        {
          "indexed": true,
          "internalType": "address",
          "name": "owner",
          "type": "address"
        },
        {
          "indexed": true,
          "internalType": "address",
          "name": "spender",
          "type": "address"
        },
        {
          "indexed": false,
          "internalType": "uint256",
          "name": "value",
          "type": "uint256"
        }
      ],
      "name": "Approval",
      "type": "event"
    },
    {
      "anonymous": false,
      "inputs": [
        {
          "indexed": true,
          "internalType": "address",
          "name": "previousOwner",
          "type": "address"
        },
        {
          "indexed": true,
          "internalType": "address",
          "name": "newOwner",
          "type": "address"
        }
      ],
      "name": "OwnershipTransferred",
      "type": "event"
    },
    {
      "anonymous": false,
      "inputs": [
        {
          "indexed": true,
          "internalType": "address",
          "name": "user",
          "type": "address"
        },
        {
          "indexed": false,
          "internalType": "uint256",
          "name": "amount",
          "type": "uint256"
        }
      ],
      "name": "TokensClaimed",
      "type": "event"
    },
    {
      "anonymous": false,
      "inputs": [
        {
          "indexed": true,
          "internalType": "address",
          "name": "from",
          "type": "address"
        },
        {
          "indexed": true,
          "internalType": "address",
          "name": "to",
          "type": "address"
        },
        {
          "indexed": false,
          "internalType": "uint256",
          "name": "value",
          "type": "uint256"
        }
      ],
      "name": "Transfer",
      "type": "event"
    },
    {
      "inputs": [],
      "name": "CLAIM_AMOUNT",
      "outputs": [
        {
          "internalType": "uint256",
          "name": "",
          "type": "uint256"
        }
      ],
      "stateMutability": "view",
      "type": "function"
    },
    {
      "inputs": [],
      "name": "CLAIM_COOLDOWN",
      "outputs": [
        {
          "internalType": "uint256",
          "name": "",
          "type": "uint256"
        }
      ],
      "stateMutability": "view",
      "type": "function"
    },
    {
      "inputs": [
        {
          "internalType": "address",
          "name": "owner",
          "type": "address"
        },
        {
          "internalType": "address",
          "name": "spender",
          "type": "address"
        }
      ],
      "name": "allowance",
      "outputs": [
        {
          "internalType": "uint256",
          "name": "",
          "type": "uint256"
        }
      ],
      "stateMutability": "view",
      "type": "function"
    },
    {
      "inputs": [
        {
          "internalType": "address",
          "name": "spender",
          "type": "address"
        },
        {
          "internalType": "uint256",
          "name": "value",
          "type": "uint256"
        }
      ],
      "name": "approve",
      "outputs": [
        {
          "internalType": "bool",
          "name": "",
          "type": "bool"
        }
      ],
      "stateMutability": "nonpayable",
      "type": "function"
    },
    {
      "inputs": [
        {
          "internalType": "address",
          "name": "account",
          "type": "address"
        }
      ],
      "name": "balanceOf",
      "outputs": [
        {
          "internalType": "uint256",
          "name": "",
          "type": "uint256"
        }
      ],
      "stateMutability": "view",
      "type": "function"
    },
    {
      "inputs": [
        {
          "internalType": "address",
          "name": "user",
          "type": "address"
        }
      ],
      "name": "canClaim",
      "outputs": [
        {
          "internalType": "bool",
          "name": "",
          "type": "bool"
        }
      ],
      "stateMutability": "view",
      "type": "function"
    },
    {
      "inputs": [
        {
          "internalType": "uint256",
          "name": "root",
          "type": "uint256"
        },
        {
          "internalType": "uint256",
          "name": "nullifierHash",
          "type": "uint256"
        },
        {
          "internalType": "uint256[8]",
          "name": "proof",
          "type": "uint256[8]"
        }
      ],
      "name": "claimTokens",
      "outputs": [],
      "stateMutability": "nonpayable",
      "type": "function"
    },
    {
      "inputs": [],
      "name": "decimals",
      "outputs": [
        {
          "internalType": "uint8",
          "name": "",
          "type": "uint8"
        }
      ],
      "stateMutability": "view",
      "type": "function"
    },
    {
      "inputs": [],
      "name": "externalNullifier",
      "outputs": [
        {
          "internalType": "uint256",
          "name": "",
          "type": "uint256"
        }
      ],
      "stateMutability": "view",
      "type": "function"
    },
    {
      "inputs": [],
      "name": "groupId",
      "outputs": [
        {
          "internalType": "uint256",
          "name": "",
          "type": "uint256"
        }
      ],
      "stateMutability": "view",
      "type": "function"
    },
    {
      "inputs": [
        {
          "internalType": "address",
          "name": "",
          "type": "address"
        }
      ],
      "name": "lastClaimTimestamp",
      "outputs": [
        {
          "internalType": "uint256",
          "name": "",
          "type": "uint256"
        }
      ],
      "stateMutability": "view",
      "type": "function"
    },
    {
      "inputs": [],
      "name": "name",
      "outputs": [
        {
          "internalType": "string",
          "name": "",
          "type": "string"
        }
      ],
      "stateMutability": "view",
      "type": "function"
    },
    {
      "inputs": [],
      "name": "owner",
      "outputs": [
        {
          "internalType": "address",
          "name": "",
          "type": "address"
        }
      ],
      "stateMutability": "view",
      "type": "function"
    },
    {
      "inputs": [],
      "name": "renounceOwnership",
      "outputs": [],
      "stateMutability": "nonpayable",
      "type": "function"
    },
    {
      "inputs": [],
      "name": "symbol",
      "outputs": [
        {
          "internalType": "string",
          "name": "",
          "type": "string"
        }
      ],
      "stateMutability": "view",
      "type": "function"
    },
    {
      "inputs": [],
      "name": "totalSupply",
      "outputs": [
        {
          "internalType": "uint256",
          "name": "",
          "type": "uint256"
        }
      ],
      "stateMutability": "view",
      "type": "function"
    },
    {
      "inputs": [
        {
          "internalType": "address",
          "name": "to",
          "type": "address"
        },
        {
          "internalType": "uint256",
          "name": "value",
          "type": "uint256"
        }
      ],
      "name": "transfer",
      "outputs": [
        {
          "internalType": "bool",
          "name": "",
          "type": "bool"
        }
      ],
      "stateMutability": "nonpayable",
      "type": "function"
    },
    {
      "inputs": [
        {
          "internalType": "address",
          "name": "from",
          "type": "address"
        },
        {
          "internalType": "address",
          "name": "to",
          "type": "address"
        },
        {
          "internalType": "uint256",
          "name": "value",
          "type": "uint256"
        }
      ],
      "name": "transferFrom",
      "outputs": [
        {
          "internalType": "bool",
          "name": "",
          "type": "bool"
        }
      ],
      "stateMutability": "nonpayable",
      "type": "function"
    },
    {
      "inputs": [
        {
          "internalType": "address",
          "name": "newOwner",
          "type": "address"
        }
      ],
      "name": "transferOwnership",
      "outputs": [],
      "stateMutability": "nonpayable",
      "type": "function"
    },
    {
      "inputs": [
        {
          "internalType": "uint256",
          "name": "",
          "type": "uint256"
        }
      ],
      "name": "usedNullifiers",
      "outputs": [
        {
          "internalType": "bool",
          "name": "",
          "type": "bool"
        }
      ],
      "stateMutability": "view",
      "type": "function"
    },
    {
      "inputs": [],
      "name": "worldIdRouter",
      "outputs": [
        {
          "internalType": "contract IWorldID",
          "name": "",
          "type": "address"
        }
      ],
      "stateMutability": "view",
      "type": "function"
    }
  ],
  "bytecode": "0x60e06040527357f928158c3ee7cdad1e4d8642503c4d0201f61173ffffffffffffffffffffffffffffffffffffffff1660809073ffffffffffffffffffffffffffffffffffffffff16815250600160a09081525034801561005f57600080fd5b506040516120d43803806120d48339818101604052810190610081919061039c565b33838381600390816100939190610664565b5080600490816100a39190610664565b505050600073ffffffffffffffffffffffffffffffffffffffff168173ffffffffffffffffffffffffffffffffffffffff16036101185760006040517f1e4fbdf700000000000000000000000000000000000000000000000000000000815260040161010f9190610777565b60405180910390fd5b6101278161016160201b60201c565b508060405160200161013991906107ce565b6040516020818303038152906040528051906020012060001c60c081815250505050506107e5565b6000600560009054906101000a900473ffffffffffffffffffffffffffffffffffffffff16905081600560006101000a81548173ffffffffffffffffffffffffffffffffffffffff021916908373ffffffffffffffffffffffffffffffffffffffff1602179055508173ffffffffffffffffffffffffffffffffffffffff168173ffffffffffffffffffffffffffffffffffffffff167f8be0079c531659141344cd1fd0a4f28419497f9722a3daafe3b4186f6b6457e060405160405180910390a35050565b6000604051905090565b600080fd5b600080fd5b600080fd5b600080fd5b6000601f19601f8301169050919050565b7f4e487b7100000000000000000000000000000000000000000000000000000000600052604160045260246000fd5b61028e82610245565b810181811067ffffffffffffffff821117156102ad576102ac610256565b5b80604052505050565b60006102c0610227565b90506102cc8282610285565b919050565b600067ffffffffffffffff8211156102ec576102eb610256565b5b6102f582610245565b9050602081019050919050565b60005b83811015610320578082015181840152602081019050610305565b60008484015250505050565b600061033f61033a846102d1565b6102b6565b90508281526020810184848401111561035b5761035a610240565b5b610366848285610302565b509392505050565b600082601f8301126103835761038261023b565b5b815161039384826020860161032c565b91505092915050565b6000806000606084860312156103b5576103b4610231565b5b600084015167ffffffffffffffff8111156103d3576103d2610236565b5b6103df8682870161036e565b935050602084015167ffffffffffffffff811115610400576103ff610236565b5b61040c8682870161036e565b925050604084015167ffffffffffffffff81111561042d5761042c610236565b5b6104398682870161036e565b9150509250925092565b600081519050919050565b7f4e487b7100000000000000000000000000000000000000000000000000000000600052602260045260246000fd5b6000600282049050600182168061049557607f821691505b6020821081036104a8576104a761044e565b5b50919050565b60008190508160005260206000209050919050565b60006020601f8301049050919050565b600082821b905092915050565b6000600883026105107fffffffffffffffffffffffffffffffffffffffffffffffffffffffffffffffff826104d3565b61051a86836104d3565b95508019841693508086168417925050509392505050565b6000819050919050565b6000819050919050565b600061056161055c61055784610532565b61053c565b610532565b9050919050565b6000819050919050565b61057b83610546565b61058f61058782610568565b8484546104e0565b825550505050565b600090565b6105a4610597565b6105af818484610572565b505050565b5b818110156105d3576105c860008261059c565b6001810190506105b5565b5050565b601f821115610618576105e9816104ae565b6105f2846104c3565b81016020851015610601578190505b61061561060d856104c3565b8301826105b4565b50505b505050565b600082821c905092915050565b600061063b6000198460080261061d565b1980831691505092915050565b6000610654838361062a565b9150826002028217905092915050565b61066d82610443565b67ffffffffffffffff81111561068657610685610256565b5b610690825461047d565b61069b8282856105d7565b600060209050601f8311600181146106ce57600084156106bc578287015190505b6106c68582610648565b86555061072e565b601f1984166106dc866104ae565b60005b82811015610704578489015182556001820191506020850194506020810190506106df565b86831015610721578489015161071d601f89168261062a565b8355505b6001600288020188555050505b505050505050565b600073ffffffffffffffffffffffffffffffffffffffff82169050919050565b600061076182610736565b9050919050565b61077181610756565b82525050565b600060208201905061078c6000830184610768565b92915050565b600081905092915050565b60006107a882610443565b6107b28185610792565b93506107c2818560208601610302565b80840191505092915050565b60006107da828461079d565b915081905092915050565b60805160a05160c0516118b961081b600039600061057e0152600061069601526000818161067201526107a601526118b96000f3fe608060405234801561001057600080fd5b50600436106101375760003560e01c80638da5cb5b116100b8578063aad240611161007c578063aad2406114610332578063b5ddfa3c14610362578063bd9d518b1461037e578063bf3506c1146103ae578063dd62ed3e146103de578063f2fde38b1461040e57610137565b80638da5cb5b1461028a57806395d89b41146102a85780639f50b66d146102c6578063a0f44c92146102e4578063a9059cbb1461030257610137565b8063313ce567116100ff578063313ce567146101f657806337c909ec1461021457806370a082311461023257806370bb640f14610262578063715018a61461028057610137565b806306fdde031461013c578063095ea7b31461015a57806318160ddd1461018a57806323b872dd146101a8578063270ef385146101d8575b600080fd5b61014461042a565b604051610151919061128d565b60405180910390f35b610174600480360381019061016f9190611348565b6104bc565b60405161018191906113a3565b60405180910390f35b6101926104df565b60405161019f91906113cd565b60405180910390f35b6101c260048036038101906101bd91906113e8565b6104e9565b6040516101cf91906113a3565b60405180910390f35b6101e0610518565b6040516101ed91906113cd565b60405180910390f35b6101fe610524565b60405161020b9190611457565b60405180910390f35b61021c61052d565b60405161022991906113cd565b60405180910390f35b61024c60048036038101906102479190611472565b610534565b60405161025991906113cd565b60405180910390f35b61026a61057c565b60405161027791906113cd565b60405180910390f35b6102886105a0565b005b6102926105b4565b60405161029f91906114ae565b60405180910390f35b6102b06105de565b6040516102bd919061128d565b60405180910390f35b6102ce610670565b6040516102db9190611528565b60405180910390f35b6102ec610694565b6040516102f991906113cd565b60405180910390f35b61031c60048036038101906103179190611348565b6106b8565b60405161032991906113a3565b60405180910390f35b61034c60048036038101906103479190611543565b6106db565b60405161035991906113a3565b60405180910390f35b61037c60048036038101906103779190611597565b6106fb565b005b61039860048036038101906103939190611472565b610910565b6040516103a591906113cd565b60405180910390f35b6103c860048036038101906103c39190611472565b610928565b6040516103d591906113a3565b60405180910390f35b6103f860048036038101906103f391906115eb565b610982565b60405161040591906113cd565b60405180910390f35b61042860048036038101906104239190611472565b610a09565b005b6060600380546104399061165a565b80601f01602080910402602001604051908101604052809291908181526020018280546104659061165a565b80156104b25780601f10610487576101008083540402835291602001916104b2565b820191906000526020600020905b81548152906001019060200180831161049557829003601f168201915b5050505050905090565b6000806104c7610a8f565b90506104d4818585610a97565b600191505092915050565b6000600254905090565b6000806104f4610a8f565b9050610501858285610aa9565b61050c858585610b3e565b60019150509392505050565b678ac7230489e8000081565b60006012905090565b6201518081565b60008060008373ffffffffffffffffffffffffffffffffffffffff1673ffffffffffffffffffffffffffffffffffffffff168152602001908152602001600020549050919050565b7f000000000000000000000000000000000000000000000000000000000000000081565b6105a8610c32565b6105b26000610cb9565b565b6000600560009054906101000a900473ffffffffffffffffffffffffffffffffffffffff16905090565b6060600480546105ed9061165a565b80601f01602080910402602001604051908101604052809291908181526020018280546106199061165a565b80156106665780601f1061063b57610100808354040283529160200191610666565b820191906000526020600020905b81548152906001019060200180831161064957829003601f168201915b5050505050905090565b7f000000000000000000000000000000000000000000000000000000000000000081565b7f000000000000000000000000000000000000000000000000000000000000000081565b6000806106c3610a8f565b90506106d0818585610b3e565b600191505092915050565b60076020528060005260406000206000915054906101000a900460ff1681565b61070433610928565b610743576040517f08c379a000000000000000000000000000000000000000000000000000000000815260040161073a906116fd565b60405180910390fd5b6007600083815260200190815260200160002060009054906101000a900460ff16156107a4576040517f08c379a000000000000000000000000000000000000000000000000000000000815260040161079b90611769565b60405180910390fd5b7f000000000000000000000000000000000000000000000000000000000000000073ffffffffffffffffffffffffffffffffffffffff1663fa0795fb338585856040518563ffffffff1660e01b815260040161080394939291906117a3565b60006040518083038186803b15801561081b57600080fd5b505afa15801561082f573d6000803e3d6000fd5b5050505060016007600084815260200190815260200160002060006101000a81548160ff02191690831515021790555042600660003373ffffffffffffffffffffffffffffffffffffffff1673ffffffffffffffffffffffffffffffffffffffff168152602001908152602001600020819055506108b533678ac7230489e80000610d7f565b3373ffffffffffffffffffffffffffffffffffffffff167f896e034966eaaf1adc54acc0f257056febbd300c9e47182cf761982cf1f5e430678ac7230489e8000060405161090391906113cd565b60405180910390a2505050565b60066020528060005260406000206000915090505481565b600062015180600660008473ffffffffffffffffffffffffffffffffffffffff1673ffffffffffffffffffffffffffffffffffffffff168152602001908152602001600020546109789190611818565b4210159050919050565b6000600160008473ffffffffffffffffffffffffffffffffffffffff1673ffffffffffffffffffffffffffffffffffffffff16815260200190815260200160002060008373ffffffffffffffffffffffffffffffffffffffff1673ffffffffffffffffffffffffffffffffffffffff16815260200190815260200160002054905092915050565b610a11610c32565b600073ffffffffffffffffffffffffffffffffffffffff168173ffffffffffffffffffffffffffffffffffffffff1603610a835760006040517f1e4fbdf7000000000000000000000000000000000000000000000000000000008152600401610a7a91906114ae565b60405180910390fd5b610a8c81610cb9565b50565b600033905090565b610aa48383836001610e01565b505050565b6000610ab58484610982565b90507fffffffffffffffffffffffffffffffffffffffffffffffffffffffffffffffff811015610b385781811015610b28578281836040517ffb8f41b2000000000000000000000000000000000000000000000000000000008152600401610b1f9392919061184c565b60405180910390fd5b610b3784848484036000610e01565b5b50505050565b600073ffffffffffffffffffffffffffffffffffffffff168373ffffffffffffffffffffffffffffffffffffffff1603610bb05760006040517f96c6fd1e000000000000000000000000000000000000000000000000000000008152600401610ba791906114ae565b60405180910390fd5b600073ffffffffffffffffffffffffffffffffffffffff168273ffffffffffffffffffffffffffffffffffffffff1603610c225760006040517fec442f05000000000000000000000000000000000000000000000000000000008152600401610c1991906114ae565b60405180910390fd5b610c2d838383610fd8565b505050565b610c3a610a8f565b73ffffffffffffffffffffffffffffffffffffffff16610c586105b4565b73ffffffffffffffffffffffffffffffffffffffff1614610cb757610c7b610a8f565b6040517f118cdaa7000000000000000000000000000000000000000000000000000000008152600401610cae91906114ae565b60405180910390fd5b565b6000600560009054906101000a900473ffffffffffffffffffffffffffffffffffffffff16905081600560006101000a81548173ffffffffffffffffffffffffffffffffffffffff021916908373ffffffffffffffffffffffffffffffffffffffff1602179055508173ffffffffffffffffffffffffffffffffffffffff168173ffffffffffffffffffffffffffffffffffffffff167f8be0079c531659141344cd1fd0a4f28419497f9722a3daafe3b4186f6b6457e060405160405180910390a35050565b600073ffffffffffffffffffffffffffffffffffffffff168273ffffffffffffffffffffffffffffffffffffffff1603610df15760006040517fec442f05000000000000000000000000000000000000000000000000000000008152600401610de891906114ae565b60405180910390fd5b610dfd60008383610fd8565b5050565b600073ffffffffffffffffffffffffffffffffffffffff168473ffffffffffffffffffffffffffffffffffffffff1603610e735760006040517fe602df05000000000000000000000000000000000000000000000000000000008152600401610e6a91906114ae565b60405180910390fd5b600073ffffffffffffffffffffffffffffffffffffffff168373ffffffffffffffffffffffffffffffffffffffff1603610ee55760006040517f94280d62000000000000000000000000000000000000000000000000000000008152600401610edc91906114ae565b60405180910390fd5b81600160008673ffffffffffffffffffffffffffffffffffffffff1673ffffffffffffffffffffffffffffffffffffffff16815260200190815260200160002060008573ffffffffffffffffffffffffffffffffffffffff1673ffffffffffffffffffffffffffffffffffffffff168152602001908152602001600020819055508015610fd2578273ffffffffffffffffffffffffffffffffffffffff168473ffffffffffffffffffffffffffffffffffffffff167f8c5be1e5ebec7d5bd14f71427d1e84f3dd0314c0f7b2291e5b200ac8c7c3b92584604051610fc991906113cd565b60405180910390a35b50505050565b600073ffffffffffffffffffffffffffffffffffffffff168373ffffffffffffffffffffffffffffffffffffffff160361102a57806002600082825461101e9190611818565b925050819055506110fd565b60008060008573ffffffffffffffffffffffffffffffffffffffff1673ffffffffffffffffffffffffffffffffffffffff168152602001908152602001600020549050818110156110b6578381836040517fe450d38c0000000000000000000000000000000000000000000000000000000081526004016110ad9392919061184c565b60405180910390fd5b8181036000808673ffffffffffffffffffffffffffffffffffffffff1673ffffffffffffffffffffffffffffffffffffffff16815260200190815260200160002081905550505b600073ffffffffffffffffffffffffffffffffffffffff168273ffffffffffffffffffffffffffffffffffffffff16036111465780600260008282540392505081905550611193565b806000808473ffffffffffffffffffffffffffffffffffffffff1673ffffffffffffffffffffffffffffffffffffffff168152602001908152602001600020600082825401925050819055505b8173ffffffffffffffffffffffffffffffffffffffff168373ffffffffffffffffffffffffffffffffffffffff167fddf252ad1be2c89b69c2b068fc378daa952ba7f163c4a11628f55a4df523b3ef836040516111f091906113cd565b60405180910390a3505050565b600081519050919050565b600082825260208201905092915050565b60005b8381101561123757808201518184015260208101905061121c565b60008484015250505050565b6000601f19601f8301169050919050565b600061125f826111fd565b6112698185611208565b9350611279818560208601611219565b61128281611243565b840191505092915050565b600060208201905081810360008301526112a78184611254565b905092915050565b600080fd5b600073ffffffffffffffffffffffffffffffffffffffff82169050919050565b60006112df826112b4565b9050919050565b6112ef816112d4565b81146112fa57600080fd5b50565b60008135905061130c816112e6565b92915050565b6000819050919050565b61132581611312565b811461133057600080fd5b50565b6000813590506113428161131c565b92915050565b6000806040838503121561135f5761135e6112af565b5b600061136d858286016112fd565b925050602061137e85828601611333565b9150509250929050565b60008115159050919050565b61139d81611388565b82525050565b60006020820190506113b86000830184611394565b92915050565b6113c781611312565b82525050565b60006020820190506113e260008301846113be565b92915050565b600080600060608486031215611401576114006112af565b5b600061140f868287016112fd565b9350506020611420868287016112fd565b925050604061143186828701611333565b9150509250925092565b600060ff82169050919050565b6114518161143b565b82525050565b600060208201905061146c6000830184611448565b92915050565b600060208284031215611488576114876112af565b5b6000611496848285016112fd565b91505092915050565b6114a8816112d4565b82525050565b60006020820190506114c3600083018461149f565b92915050565b6000819050919050565b60006114ee6114e96114e4846112b4565b6114c9565b6112b4565b9050919050565b6000611500826114d3565b9050919050565b6000611512826114f5565b9050919050565b61152281611507565b82525050565b600060208201905061153d6000830184611519565b92915050565b600060208284031215611559576115586112af565b5b600061156784828501611333565b91505092915050565b600080fd5b60008190508260206008028201111561159157611590611570565b5b92915050565b600080600061014084860312156115b1576115b06112af565b5b60006115bf86828701611333565b93505060206115d086828701611333565b92505060406115e186828701611575565b9150509250925092565b60008060408385031215611602576116016112af565b5b6000611610858286016112fd565b9250506020611621858286016112fd565b9150509250929050565b7f4e487b7100000000000000000000000000000000000000000000000000000000600052602260045260246000fd5b6000600282049050600182168061167257607f821691505b6020821081036116855761168461162b565b5b50919050565b7f436c61696d20636f6f6c646f776e3a20706c656173652077616974203234206860008201527f6f75727300000000000000000000000000000000000000000000000000000000602082015250565b60006116e7602483611208565b91506116f28261168b565b604082019050919050565b60006020820190508181036000830152611716816116da565b9050919050565b7f50726f6f662068617320616c7265616479206265656e20757365640000000000600082015250565b6000611753601b83611208565b915061175e8261171d565b602082019050919050565b6000602082019050818103600083015261178281611746565b9050919050565b82818337505050565b61179f6101008383611789565b5050565b6000610160820190506117b9600083018761149f565b6117c660208301866113be565b6117d360408301856113be565b6117e06060830184611792565b95945050505050565b7f4e487b7100000000000000000000000000000000000000000000000000000000600052601160045260246000fd5b600061182382611312565b915061182e83611312565b9250828201905080821115611846576118456117e9565b5b92915050565b6000606082019050611861600083018661149f565b61186e60208301856113be565b61187b60408301846113be565b94935050505056fea264697066735822122081110bdb35684b8c93ffc84dac34182ed6b1b591ea4bb52d41a9629f957d90fc64736f6c634300081b0033",
  "linkReferences": {},
  "deployedLinkReferences": {}
}